{
  "_format": "hh-sol-artifact-1",
  "contractName": "Bank",
  "sourceName": "contracts/bank.sol",
  "abi": [
    {
      "inputs": [],
      "stateMutability": "nonpayable",
      "type": "constructor"
    },
    {
      "inputs": [
        {
          "internalType": "address",
          "name": "",
          "type": "address"
        },
        {
          "internalType": "bytes32",
          "name": "",
          "type": "bytes32"
        }
      ],
      "name": "balances",
      "outputs": [
        {
          "internalType": "uint256",
          "name": "",
          "type": "uint256"
        }
      ],
      "stateMutability": "view",
      "type": "function"
    },
    {
      "inputs": [
        {
          "internalType": "uint256",
          "name": "amount",
          "type": "uint256"
        },
        {
          "internalType": "bytes32",
          "name": "symbol",
          "type": "bytes32"
        }
      ],
      "name": "depositTokens",
      "outputs": [],
      "stateMutability": "nonpayable",
      "type": "function"
    },
    {
      "inputs": [
        {
          "internalType": "bytes32",
          "name": "symbol",
          "type": "bytes32"
        }
      ],
      "name": "getTokenBalance",
      "outputs": [
        {
          "internalType": "uint256",
          "name": "",
          "type": "uint256"
        }
      ],
      "stateMutability": "view",
      "type": "function"
    },
    {
      "inputs": [],
      "name": "getWhitelistedSymbols",
      "outputs": [
        {
          "internalType": "bytes32[]",
          "name": "",
          "type": "bytes32[]"
        }
      ],
      "stateMutability": "view",
      "type": "function"
    },
    {
      "inputs": [
        {
          "internalType": "bytes32",
          "name": "symbol",
          "type": "bytes32"
        }
      ],
      "name": "getWhitelistedTokenAddress",
      "outputs": [
        {
          "internalType": "address",
          "name": "",
          "type": "address"
        }
      ],
      "stateMutability": "view",
      "type": "function"
    },
    {
      "inputs": [
        {
          "internalType": "bytes32",
          "name": "symbol",
          "type": "bytes32"
        },
        {
          "internalType": "address",
          "name": "tokenAddress",
          "type": "address"
        }
      ],
      "name": "whitelistToken",
      "outputs": [],
      "stateMutability": "nonpayable",
      "type": "function"
    },
    {
      "inputs": [
        {
          "internalType": "uint256",
          "name": "",
          "type": "uint256"
        }
      ],
      "name": "whitelistedSymbols",
      "outputs": [
        {
          "internalType": "bytes32",
          "name": "",
          "type": "bytes32"
        }
      ],
      "stateMutability": "view",
      "type": "function"
    },
    {
      "inputs": [
        {
          "internalType": "bytes32",
          "name": "",
          "type": "bytes32"
        }
      ],
      "name": "whitelistedTokens",
      "outputs": [
        {
          "internalType": "address",
          "name": "",
          "type": "address"
        }
      ],
      "stateMutability": "view",
      "type": "function"
    },
    {
      "inputs": [
        {
          "internalType": "uint256",
          "name": "amount",
          "type": "uint256"
        }
      ],
      "name": "withdrawEther",
      "outputs": [],
      "stateMutability": "nonpayable",
      "type": "function"
    },
    {
      "inputs": [
        {
          "internalType": "uint256",
          "name": "amount",
          "type": "uint256"
        },
        {
          "internalType": "bytes32",
          "name": "symbol",
          "type": "bytes32"
        }
      ],
      "name": "withdrawTokens",
      "outputs": [],
      "stateMutability": "nonpayable",
      "type": "function"
    },
    {
      "stateMutability": "payable",
      "type": "receive"
    }
  ],
  "bytecode": "0x608060405234801561001057600080fd5b50336000806101000a81548173ffffffffffffffffffffffffffffffffffffffff021916908373ffffffffffffffffffffffffffffffffffffffff16021790555061101c806100606000396000f3fe6080604052600436106100955760003560e01c806388db6ac61161005957806388db6ac61461021e5780638f97994b1461025b578063aa3d9a1514610284578063d15b223e146102c1578063e8812788146102ea57610122565b8063069fdaae146101275780631f14df69146101505780633bed33ce1461018d5780634762b976146101b65780634b1e4aa5146101f357610122565b366101225734600360003373ffffffffffffffffffffffffffffffffffffffff1673ffffffffffffffffffffffffffffffffffffffff16815260200190815260200160002060007f45746800000000000000000000000000000000000000000000000000000000008152602001908152602001600020600082825461011a9190610a4d565b925050819055005b600080fd5b34801561013357600080fd5b5061014e60048036038101906101499190610b1a565b610327565b005b34801561015c57600080fd5b5061017760048036038101906101729190610b5a565b610434565b6040516101849190610ba9565b60405180910390f35b34801561019957600080fd5b506101b460048036038101906101af9190610bf0565b610459565b005b3480156101c257600080fd5b506101dd60048036038101906101d89190610bf0565b6105ff565b6040516101ea9190610c2c565b60405180910390f35b3480156101ff57600080fd5b50610208610623565b6040516102159190610d05565b60405180910390f35b34801561022a57600080fd5b5061024560048036038101906102409190610d27565b61067b565b6040516102529190610ba9565b60405180910390f35b34801561026757600080fd5b50610282600480360381019061027d9190610d54565b6106d5565b005b34801561029057600080fd5b506102ab60048036038101906102a69190610d27565b610885565b6040516102b89190610da3565b60405180910390f35b3480156102cd57600080fd5b506102e860048036038101906102e39190610d54565b6108b8565b005b3480156102f657600080fd5b50610311600480360381019061030c9190610d27565b6109d7565b60405161031e9190610da3565b60405180910390f35b60008054906101000a900473ffffffffffffffffffffffffffffffffffffffff1673ffffffffffffffffffffffffffffffffffffffff163373ffffffffffffffffffffffffffffffffffffffff16146103b5576040517f08c379a00000000000000000000000000000000000000000000000000000000081526004016103ac90610e1b565b60405180910390fd5b6001829080600181540180825580915050600190039060005260206000200160009091909190915055806002600084815260200190815260200160002060006101000a81548173ffffffffffffffffffffffffffffffffffffffff021916908373ffffffffffffffffffffffffffffffffffffffff1602179055505050565b6003602052816000526040600020602052806000526040600020600091509150505481565b80600360003373ffffffffffffffffffffffffffffffffffffffff1673ffffffffffffffffffffffffffffffffffffffff16815260200190815260200160002060007f4574680000000000000000000000000000000000000000000000000000000000815260200190815260200160002054101561050c576040517f08c379a000000000000000000000000000000000000000000000000000000000815260040161050390610e87565b60405180910390fd5b80600360003373ffffffffffffffffffffffffffffffffffffffff1673ffffffffffffffffffffffffffffffffffffffff16815260200190815260200160002060007f45746800000000000000000000000000000000000000000000000000000000008152602001908152602001600020600082825461058c9190610ea7565b925050819055503373ffffffffffffffffffffffffffffffffffffffff16816040516105b790610f0c565b60006040518083038185875af1925050503d80600081146105f4576040519150601f19603f3d011682016040523d82523d6000602084013e6105f9565b606091505b50505050565b6001818154811061060f57600080fd5b906000526020600020016000915090505481565b6060600180548060200260200160405190810160405280929190818152602001828054801561067157602002820191906000526020600020905b81548152602001906001019080831161065d575b5050505050905090565b6000600360003373ffffffffffffffffffffffffffffffffffffffff1673ffffffffffffffffffffffffffffffffffffffff1681526020019081526020016000206000838152602001908152602001600020549050919050565b81600360003373ffffffffffffffffffffffffffffffffffffffff1673ffffffffffffffffffffffffffffffffffffffff1681526020019081526020016000206000838152602001908152602001600020541015610768576040517f08c379a000000000000000000000000000000000000000000000000000000000815260040161075f90610e87565b60405180910390fd5b81600360003373ffffffffffffffffffffffffffffffffffffffff1673ffffffffffffffffffffffffffffffffffffffff168152602001908152602001600020600083815260200190815260200160002060008282546107c89190610ea7565b925050819055506002600082815260200190815260200160002060009054906101000a900473ffffffffffffffffffffffffffffffffffffffff1673ffffffffffffffffffffffffffffffffffffffff1663a9059cbb33846040518363ffffffff1660e01b815260040161083d929190610f21565b6020604051808303816000875af115801561085c573d6000803e3d6000fd5b505050506040513d601f19601f820116820180604052508101906108809190610f82565b505050565b60026020528060005260406000206000915054906101000a900473ffffffffffffffffffffffffffffffffffffffff1681565b81600360003373ffffffffffffffffffffffffffffffffffffffff1673ffffffffffffffffffffffffffffffffffffffff168152602001908152602001600020600083815260200190815260200160002060008282546109189190610a4d565b925050819055506002600082815260200190815260200160002060009054906101000a900473ffffffffffffffffffffffffffffffffffffffff1673ffffffffffffffffffffffffffffffffffffffff166323b872dd3330856040518463ffffffff1660e01b815260040161098f93929190610faf565b6020604051808303816000875af11580156109ae573d6000803e3d6000fd5b505050506040513d601f19601f820116820180604052508101906109d29190610f82565b505050565b60006002600083815260200190815260200160002060009054906101000a900473ffffffffffffffffffffffffffffffffffffffff169050919050565b6000819050919050565b7f4e487b7100000000000000000000000000000000000000000000000000000000600052601160045260246000fd5b6000610a5882610a14565b9150610a6383610a14565b9250828201905080821115610a7b57610a7a610a1e565b5b92915050565b600080fd5b6000819050919050565b610a9981610a86565b8114610aa457600080fd5b50565b600081359050610ab681610a90565b92915050565b600073ffffffffffffffffffffffffffffffffffffffff82169050919050565b6000610ae782610abc565b9050919050565b610af781610adc565b8114610b0257600080fd5b50565b600081359050610b1481610aee565b92915050565b60008060408385031215610b3157610b30610a81565b5b6000610b3f85828601610aa7565b9250506020610b5085828601610b05565b9150509250929050565b60008060408385031215610b7157610b70610a81565b5b6000610b7f85828601610b05565b9250506020610b9085828601610aa7565b9150509250929050565b610ba381610a14565b82525050565b6000602082019050610bbe6000830184610b9a565b92915050565b610bcd81610a14565b8114610bd857600080fd5b50565b600081359050610bea81610bc4565b92915050565b600060208284031215610c0657610c05610a81565b5b6000610c1484828501610bdb565b91505092915050565b610c2681610a86565b82525050565b6000602082019050610c416000830184610c1d565b92915050565b600081519050919050565b600082825260208201905092915050565b6000819050602082019050919050565b610c7c81610a86565b82525050565b6000610c8e8383610c73565b60208301905092915050565b6000602082019050919050565b6000610cb282610c47565b610cbc8185610c52565b9350610cc783610c63565b8060005b83811015610cf8578151610cdf8882610c82565b9750610cea83610c9a565b925050600181019050610ccb565b5085935050505092915050565b60006020820190508181036000830152610d1f8184610ca7565b905092915050565b600060208284031215610d3d57610d3c610a81565b5b6000610d4b84828501610aa7565b91505092915050565b60008060408385031215610d6b57610d6a610a81565b5b6000610d7985828601610bdb565b9250506020610d8a85828601610aa7565b9150509250929050565b610d9d81610adc565b82525050565b6000602082019050610db86000830184610d94565b92915050565b600082825260208201905092915050565b7f546869732066756e6374696f6e206973206e6f74207075626c69632100000000600082015250565b6000610e05601c83610dbe565b9150610e1082610dcf565b602082019050919050565b60006020820190508181036000830152610e3481610df8565b9050919050565b7f496e73756666696369656e742066756e64730000000000000000000000000000600082015250565b6000610e71601283610dbe565b9150610e7c82610e3b565b602082019050919050565b60006020820190508181036000830152610ea081610e64565b9050919050565b6000610eb282610a14565b9150610ebd83610a14565b9250828203905081811115610ed557610ed4610a1e565b5b92915050565b600081905092915050565b50565b6000610ef6600083610edb565b9150610f0182610ee6565b600082019050919050565b6000610f1782610ee9565b9150819050919050565b6000604082019050610f366000830185610d94565b610f436020830184610b9a565b9392505050565b60008115159050919050565b610f5f81610f4a565b8114610f6a57600080fd5b50565b600081519050610f7c81610f56565b92915050565b600060208284031215610f9857610f97610a81565b5b6000610fa684828501610f6d565b91505092915050565b6000606082019050610fc46000830186610d94565b610fd16020830185610d94565b610fde6040830184610b9a565b94935050505056fea264697066735822122023973444d4d99c4bd247d8ea5c63e76071bddeb5aba6a7e4ded6fd8ddf9eb6e664736f6c63430008110033",
  "linkReferences": {},
  "deployedLinkReferences": {}
}